:100000008FC2B3C2B2C2B1C2B0C2AFC2AEC2ADC281
:10001000ACC2ABC2AAC2A9C2A8C2A7C2A6C20000F3
:100020000000003E5B4F5B3E3E6B4F6B3E1C3E7CD8
:100030003E1C183C7E3C181C577D571C1C5E7F5E86
:100040001C00183C1800FFE7C3E7FF001824180045
:10005000FFE7DBE7FF30483A060E262979292640DC
:100060007F050507407F05253F5A3CE73C5A7F3E08
:100070001C1C08081C1C3E7F14227F22145F5F009A
:100080005F5F06097F017F006689956A6060606036
:100090006094A2FFA29408047E040810207E201021
:1000A00008082A1C08081C2A08081E101010100C2A
:1000B0001E0C1E0C30383E3830060E3E0E06000078
:1000C00000000000005F00000007000700147F141C
:1000D0007F14242A7F2A122313086462364956208B
:1000E000500008070300001C2241000041221C00B0
:1000F0002A1C7F1C2A08083E08080080703000086F
:1001000008080808000060600020100804023E5142
:1001100049453E00427F40007249494946214149D4
:100120004D331814127F1027454545393C4A49493B
:100130003141211109073649494936464949291EA5
:100140000000140000004034000000081422411494
:1001500014141414004122140802015909063E41E6
:100160005D594E7C1211127C7F494949363E41410E
:1001700041227F4141413E7F494949417F09090967
:10018000013E414151737F0808087F00417F4100D3
:100190002040413F017F081422417F404040407F82
:1001A000021C027F7F0408107F3E4141413E7F09CF
:1001B0000909063E4151215E7F0919294626494910
:1001C000493203017F01033F4040403F1F20402050
:1001D0001F3F4038403F631408146303047804034E
:1001E0006159494D43007F414141020408102000FC
:1001F0004141417F0402010204404040404000036D
:1002000007080020545478407F2844443838444438
:100210004428384444287F385454541800087E0930
:100220000218A4A49C787F0804047800447D400050
:100230002040403D007F1028440000417F40007C6A
:10024000047804787C080404783844444438FC1862
:1002500024241818242418FC7C0804040848545446
:10026000542404043F44243C4040207C1C20402073
:100270001C3C4030403C44281028444C9090907CDA
:100280004464544C440008364100000077000000EC
:100290004136080002010204023C2623263C1EA12E
:1002A000A161123A4040207A38545455592155558D
:1002B000794121545478412155547840205455793E
:1002C000400C1E52721239555555593954545459CF
:1002D00039555454580000457C410002457D420088
:1002E00001457C40F0292429F0F0282528F07C5491
:1002F0005545002054547C547C0A097F49324949B1
:1003000049323248484832324A4848303A4141211D
:100310007A3A42402078009DA0A07D394444443977
:100320003D4040403D3C24FF2424487E4943662B09
:100330002FFC2F2BFF0929F620C0887E09032054AB
:100340005479410000447D413048484A32384040A9
:10035000227A007A0A0A727D0D19317D2629292F09
:1003600028262929292630484D4020380808080821
:1003700008080808382F10C8ACBA2F102834FA0023
:10038000007B000008142A142222142A1408AA0050
:100390005500AAAA55AA55AAAAFFAAFFAA000000BA
:1003A000FF00101010FF00141414FF001010FF00C5
:1003B000FF1010F010F0141414FC001414F700FFD8
:1003C0000000FF00FF1414F404FC141417101F1095
:1003D000101F101F1414141F00101010F000000044
:1003E000001F101010101F10101010F0100000004F
:1003F000FF101010101010101010FF10000000FF60
:10040000140000FF00FF00001F10170000FC04F4A0
:1004100014141710171414F404F40000FF00F71458
:10042000141414141414F700F714141417141010DF
:100430001F101F141414F4141010F010F000001FFB
:10044000101F0000001F14000000FC140000F0103A
:10045000F01010FF10FF141414FF141010101F00E0
:10046000000000F010FFFFFFFFFFF0F0F0F0F0FFE2
:10047000FFFF0000000000FFFF0F0F0F0F0F3844B9
:100480004438447C2A2A3E147E02020606027E027A
:100490007E0263554941633844443C04407E201E3B
:1004A0002006027E020299A5E7A5991C2A492A1C6A
:1004B0004C7201724C304A4D4D303048784830BC57
:1004C000625A463D3E494949007E0101017E2A2A81
:1004D0002A2A2A44445F444440514A444040444A02
:1004E00051400000FF0103E080FF000008086B6B33
:1004F000083612362436060F090F060000181800B9
:1005000000001010003040FF0101001F01011E001B
:10051000191D1712003C3C3C3C00000000004F0736
:1005200011241FBECFE5D2E0DEBFCDBF10E0A0E6B4
:10053000B0E0E0E1F4E102C005900D92A838B10707
:10054000D9F720E0A8E8B0E001C01D92AA3CB207AC
:10055000E1F712E0C0E9D2E003C02197FE0126D501
:10056000CF38D107D1F70ED451C74ACD089557C01F
:1005700010928B00660F60938C000895E0918B00C1
:10058000E13150F4EF5FE0938B00F0E0E457FF4F70
:10059000608381E090E0089590E080E00895CF933B
:1005A000C62F60918B006F5F8CE890E0F0D01092C6
:1005B0008B00882329F0CC2329F0ECD0811102C0D4
:1005C000CF9138C080E0CF91089561E0E8CF1092DC
:1005D0008A0040938900660F616060938C0061E03F
:1005E000640F8CE890E0D3D0882319F0D3D0811128
:1005F00001C020C080E00895E0918A00EF5FE093A1
:100600008A00F0E0E457FF4F808190E008958091E8
:10061000890090918A00891B990B0895BBC0C09AEC
:10062000C29ABA9AB89A8FEF8FB98AE28DB980EFE1
:100630008EB9089580919E0008958EB98BE29BE15A
:100640009A95F1F700C08DB9B29BFECF96E19A95CD
:10065000F1F78DB9769BF3CF8BE18A95F1F700C066
:100660008FB19FEF9FB9B89A0895C29AC29BFECFEF
:100670008BE18A95F1F700C0C09886E18A95F1F781
:10068000C298C09A779905C083E080939E0080E06D
:10069000089581E00895AF92BF92CF92DF92EF92DA
:1006A000FF920F931F93CF93DF938C01E62E8091DF
:1006B0009E00816080939E00F801908190FD03C0B0
:1006C000826080939E00D1DF882311F1E801FE2C27
:1006D000BB24BA94AA24A3946E01FFEFCF1ADF0AB9
:1006E00080919E008370D9F1C29888818FB980EF84
:1006F000A4DFB8988EEFA1DF90919E0080FF17C015
:10070000892F817090FF0FC081E080939E0080E070
:10071000DF91CF911F910F91FF90EF90DF90CF90DD
:10072000BF90AF90089592E090939E00F1CF892FF3
:100730008570843059F4F801808181608083A092B3
:100740009E0093DF811118C09AE0EECF9E7F9093B8
:100750009E00E601FA94F110BFCF81E0D9CFB8989E
:1007600080EF6BDF8883F1E0FF1204C0BFB88EEF2B
:1007700064DFEFCF1FB8FBCFE801FE2CEBCFFC010D
:1007800020812E7F208324E020939E0084CF10922E
:100790009E0081CFC098C29AB29BFECF86E18A9517
:1007A000F1F7C09A8BE18A95F1F700C09EB1892FCD
:1007B000807295FD04C094E090939E00089581E0BE
:1007C00008958F929F92AF92BF92CF92DF92EF9255
:1007D000FF92CF93DF93CDB7DEB72C970FB6F89487
:1007E000DEBF0FBECDBF4B015C0128EE33E040E021
:1007F00050E09ED36B017C01F7FE08C0F094E094BA
:10080000D094C094C11CD11CE11CF11CC501B401E1
:1008100028EE33E040E050E08BD3C9014AE0BE014E
:100820006F5F7F4FC0D5BE016F5F7F4F83EC90E05D
:10083000C0D164E670E083EC90E0BBD184E6C816DA
:10084000D104E104F10484F466E670E083EC90E006
:10085000B0D18AE0C816D104E104F1042CF466E6B4
:1008600070E083EC90E0A5D14AE0BE016F5F7F4F5E
:10087000C60199D5BE016F5F7F4F83EC90E099D19F
:100880002C960FB6F894DEBF0FBECDBFDF91CF918F
:10089000FF90EF90DF90CF90BF90AF909F908F90A0
:1008A0000895CF93C82F88E890E061DE6CE388E874
:1008B00090E05EDE60E888E890E060DE6C2F88E81B
:1008C00090E05CDE88E890E0CF917FCE640F751FEA
:1008D000FB0184910895CF93C62F88E890E047DE0E
:1008E0006CE388E890E044DE60E888E890E046DE6B
:1008F0006C2F88E890E042DE88E890E0CF9165CEEA
:10090000CF93C62F88E890E032DE6CE388E890E071
:100910002FDE60E488E890E031DE6C2F88E890E01C
:100920002DDE88E890E0CF9150CE88E890E01FDE81
:1009300080E990E50197F1F700C000008EEAB1DF91
:1009400088EAAFDF8FE3ADDF83EDABDF80E0A9DFC7
:1009500080E2A7DF80E0A5DF80EBA3DF80E0A1DFFE
:1009600080E19FDF80E49DDF81E89BDF8FEC99DFF2
:1009700081EA97DF88EC95DF86EA93DF85ED91DFEA
:1009800080E88FDF89ED8DDF81EF8BDF8AED89DFF6
:1009900082E187DF8BED85DF80E383DF8EE281DF1D
:1009A0008DE87FDF84E17DDF8FEA7BCF0F931F939C
:1009B000CF93DF93D62FC42F122F88E890E0D7DD96
:1009C0006CE388E890E0D4DD60E888E890E0D6DD6C
:1009D00061E288E890E0D2DD60E088E890E0CEDD7A
:1009E0006D2F88E890E0CADD8D2F810F9927991F20
:1009F000BC016150710988E890E0C0DD88E890E0B2
:100A0000E4DD88E890E0B3DD6CE388E890E0B0DDF9
:100A100060E888E890E0B2DD62E288E890E0AEDD70
:100A200060E088E890E0AADD6C2F88E890E0A6DD21
:100A30008C2F800F9927991FBC016150710988E89C
:100A400090E09CDD88E890E0DF91CF911F910F91BD
:100A5000BCCD0F9308E0041B20E8261BA7DF0F91F5
:100A6000089580E01EDF80E11CDF80E41ACF0F9341
:100A70001F93CF93DF93EC0180E013DF80E111DF60
:100A800080E40FDF08E020E840E060E0CE018EDF88
:100A9000C1E4D0E06CE388E890E06ADD60E488E8D7
:100AA00090E06CDD10E160E088E890E067DD1150D7
:100AB000D1F788E890E089DD219761F7DF91CF9148
:100AC0001F910F9108950F931F93CF93DF93C62F1C
:100AD00080E0E7DE80E1E5DE80E4E3DE10E000E0D8
:100AE0006CE388E890E044DD60E488E890E046DD6F
:100AF000D0E06C2F6D0F88E890E040DDDF5FD031F3
:100B0000C1F788E890E061DD0F5F1F4FC05F0134DF
:100B1000110531F7DF91CF911F910F910895FF9249
:100B20000F931F93CF93DF93862F90E065E070E0E3
:100B3000EED1FC01E25EFF4FF490FC01E15EFF4F5D
:100B40000491FC01E05EFF4F1491FC01EF5DFF4F4B
:100B5000D4918E5D9F4FFC01C4916CE388E890E0D6
:100B600007DD60E488E890E009DD60E088E890E077
:100B700005DD6F2D88E890E001DD602F88E890E0CA
:100B8000FDDC612F88E890E0F9DC6D2F88E890E0CB
:100B9000F5DC6C2F88E890E0F1DC60E088E890E01C
:100BA000EDDC88E890E0DF91CF911F910F91FF90ED
:100BB0000CCDEF92FF920F931F93CF93DF937C01A5
:100BC000FB0101900020E9F731971E2F161B062F1D
:100BD000C62FD72F8C2F801B811720F46991C70156
:100BE0009EDFF8CFDF91CF911F910F91FF90EF9093
:100BF0000895CF92DF92EF920F931F93CF93DF93DD
:100C00006B01642F422FC02F0E2D2C2FCFDE6E2DA7
:100C100070E08C2F90E07BD18C01D0E0C0E00C170D
:100C20001D07A9F0F601EC0FFD1FE4906CE388E8C6
:100C300090E09EDC60E488E890E0A0DC6E2D88E81F
:100C400090E09CDC88E890E0C0DC2196E8CFDF9162
:100C5000CF911F910F91EF90DF90CF9008951F9348
:100C6000CF93DF93182FEB0160E488E890E080DCFD
:100C7000612F88E890E082DC6D2F88E890E07EDCD0
:100C80006C2F88E890E07ADC88E890E0DF91CF91E3
:100C90001F919BCCCF93DF93C82F60E488E890E04E
:100CA00067DC6C2F88E890E069DC88E890E08DDCF8
:100CB00042E060E488E890E08ADC88E890E09CDC30
:100CC000D82FC92F88E890E097DC97FF02C090E00A
:100CD00080E099272D2F3C2F37FF02C030E020E025
:100CE000322F2227822B932BDF91CF9108956FE92A
:100CF00079E380E0B4DF6091C4007091C50085E0C5
:100D0000AECF82E0C7DF23E0969587952A95E1F77D
:100D1000BC0190E080E04ED22FE632E143E85BE395
:100D2000D7D2089581E0B6DFBC01990F880B990BEB
:100D300043D22CEA35EC47E257E3CAD2089584E067
:100D4000A9DFBC01990F880B990B36D22091600066
:100D5000309161004091620050916300B9D20895D2
:100D600083E098DFBC0190E080E024D22091C600AF
:100D70003091C7004091C8005091C900A9D2089590
:100D800085E088CF88E890E0F2DB68E783EC90E0CC
:100D9000CCDD83EC90E06BDEAADFB3DF6B017C017E
:100DA000C1DF4B015C0120E030E04AE754E4C701B9
:100DB000B6018ED220E030E040E05FE3FED0C9D142
:100DC0006B017C0120E030E04AE754E4C501B40146
:100DD0007FD220E030E040E05FE3EFD0BAD1C60E32
:100DE000D71EE81EF91EABDF2B013C01B9DF4B011A
:100DF0005C0140E060E083EC90E02BDE68E670E0B0
:100E000083EC90E0D6DEC701B601DBDC6EE670E075
:100E100083EC90E0CEDE43E060E083EC90E019DE0E
:100E200061E770E083EC90E0C4DE20E030E04AE768
:100E300054E4C301B2014CD220E030E040E05FE373
:100E400047D287D1BEDC6AE770E083EC90E0B1DE88
:100E500046E060E083EC90E0FCDD6DE770E083EC61
:100E600090E0A7DE20E030E04AE754E4C501B40199
:100E70002FD220E030E040E05FE32AD26AD1A1DC4B
:100E800064E870E083EC90E094DE2FE48DE299E179
:100E9000215080409040E1F700C000007ECFCF920B
:100EA000DF92EF92FF92C0906000D0906100E090DE
:100EB0006200F090630020E030E040EA51E4C701B6
:100EC000B60106D26093C6007093C7008093C80035
:100ED0009093C9002DEC3CEC4CEC5DE3C701B601EE
:100EE000F7D19B01AC016CEA75EC87E29DE3C9D0B8
:100EF00020E030E040E05FE360D030D17093C50087
:100F00006093C400FF90EF90DF90CF90089500248D
:100F1000552704C0080E591F880F991F009729F004
:100F200076956795B8F37105B9F7802D952F0895DB
:100F3000052E97FB16F400940FD057FD05D014D062
:100F400007FC02D046F408C0509540953095219595
:100F50003F4F4F4F5F4F08959095809570956195E5
:100F60007F4F8F4F9F4F0895A1E21A2EAA1BBB1BE4
:100F7000FD010DC0AA1FBB1FEE1FFF1FA217B30765
:100F8000E407F50720F0A21BB30BE40BF50B661F7B
:100F9000771F881F991F1A9469F76095709580953F
:100FA00090959B01AC01BD01CF010895EE0FFF1F8D
:100FB0000590F491E02D09945058BB27AA270ED034
:100FC0004DC13ED130F043D120F031F49F3F11F4B8
:100FD0001EF433C10EF4E095E7FB29C1E92F4FD190
:100FE00080F3BA17620773078407950718F071F446
:100FF0009EF567C10EF4E0950B2EBA2FA02D0B01C4
:10100000B90190010C01CA01A0011124FF27591B4D
:1010100099F0593F50F4503E68F11A16F040A22F53
:10102000232F342F4427585FF3CF469537952795C4
:10103000A795F0405395C9F77EF41F16BA0B620BC3
:10104000730B840BBAF09150A1F0FF0FBB1F661F0A
:10105000771F881FC2F70EC0BA0F621F731F841F4D
:1010600048F4879577956795B795F7959E3F08F073
:10107000B3CF9395880F08F09927EE0F9795879532
:1010800008950CD0EBC0E3D040F0DAD030F021F47A
:101090005F3F19F0CCC0511115C1CFC0F0D098F30B
:1010A0009923C9F35523B1F3951B550BBB27AA27E9
:1010B00062177307840738F09F5F5F4F220F331F5B
:1010C000441FAA1FA9F333D00E2E3AF0E0E830D027
:1010D00091505040E695001CCAF729D0FE2F27D02A
:1010E000660F771F881FBB1F261737074807AB07F8
:1010F000B0E809F0BB0B802DBF01FF2793585F4F6D
:101100002AF09E3F510568F092C0DCC05F3FECF3CF
:10111000983EDCF3869577956795B795F7959F5F31
:10112000C9F7880F911D9695879597F90895E1E085
:10113000660F771F881FBB1F621773078407BA07E4
:1011400020F0621B730B840BBA0BEE1F88F7E0953F
:10115000089504D06894B111B5C0089598D088F06E
:101160009F5790F0B92F9927B751A0F0D1F0660F93
:10117000771F881F991F1AF0BA95C9F712C0B130AE
:1011800081F09FD0B1E008959CC0672F782F882709
:10119000B85F39F0B93FCCF3869577956795B395ED
:1011A000D9F73EF490958095709561957F4F8F4F5C
:1011B0009F4F0895E89409C097FB3EF49095809561
:1011C000709561957F4F8F4F9F4F9923A9F0F92F0D
:1011D00096E9BB279395F695879577956795B7958B
:1011E000F111F8CFFAF4BB0F11F460FF1BC06F5F71
:1011F0007F4F8F4F9F4F16C0882311F096E911C083
:10120000772321F09EE8872F762F05C0662371F0A3
:1012100096E8862F70E060E02AF09A95660F771FB7
:10122000881FDAF7880F9695879597F9089597F9AB
:101230009F6780E870E060E008959FEF80EC08957C
:1012400000240A94161617061806090608950024A5
:101250000A9412161306140605060895092E03941F
:10126000000C11F4882352F0BB0F40F4BF2B11F493
:1012700060FF04C06F5F7F4F8F4F9F4F089557FDF2
:101280009058440F551F59F05F3F71F04795880FF4
:1012900097FB991F61F09F3F79F08795089512168B
:1012A00013061406551FF2CF4695F1DF08C0161637
:1012B00017061806991FF1CF8695710561050894E8
:1012C0000895E894BB2766277727CB0197F90895FF
:1012D0000AD0C4CFB5DF28F0BADF18F0952309F0A3
:1012E000A6CFABCFEFCFCBDFA8F39923D9F355230C
:1012F000C9F3950F50E0551FAA27EE27FF27BB27FC
:1013000000240894679520F4E20FF31FB41F0A1E0F
:10131000220F331F441FAA1F6695A9F7779530F453
:10132000F30FB41F0A1E121E08F46395330F441FF7
:10133000AA1F221F769599F7879520F4B40F0A1EED
:10134000121E631F440FAA1F221F331F8695A9F781
:10135000862F712D602D11249F5750408AF0E1F0A7
:1013600088234AF0EE0FFF1FBB1F661F771F881FE1
:1013700091505040A9F79E3F510570F058CFA2CF31
:101380005F3FECF3983EDCF3869577956795B795CC
:10139000F795E7959F5FC1F7FE2B880F911D9695F6
:1013A000879597F90895BB274A3031F4992322F4A1
:1013B000BDE2909581959F4F01C0BB27FB0155274A
:1013C000AA27880F991FAA1FA41710F0A41B8395A2
:1013D0005051B9F7A05DAA3308F0A95DA193009719
:1013E00079F7B111B1931192CB0100C0DC01FC017E
:1013F000672F71917723E1F7329704C07C916D9349
:1014000070836291AE17BF07C8F30895F894FFCFB9
:10141000000080382E003000566F6C743A00205661
:101420000043757272656E743A00204100506F7708
:0814300065723A00205700002C
:00000001FF
